:020000040800F2
:10000000509F0020153B0008D5020008D7020008C9
:10001000DB020008DF020008E30200080000000025
:10002000000000000000000000000000E7020008DF
:10003000E902000800000000EB020008ED020008E1
:100040002F3B00082F3B00082F3B0008FD24000831
:100050002F3B00082F3B00082F3B00082F3B0008D8
:100060002F3B00082F3B00082F3B00082F3B0008C8
:100070002F3B00082F3B00082F3B00082F3B0008B8
:100080002F3B00082F3B00082F3B00082F3B0008A8
:100090002F3B00082F3B00082F3B0008912500084C
:1000A0002F3B00082F3B00082F3B00082F3B000888
:1000B0002F3B00082F3B0008BF2B00082F3B0008F8
:1000C0002F3B00082F3B00082F3B00082F3B000868
:1000D0002F3B00088B3A0008872900082F3B0008B7
:1000E0002F3B00082F3B00082F3B00082F3B000848
:1000F0002F3B00082F3B00082F3B00082F3B000838
:100100002F3B00082F3B00082F3B00082F3B000827
:100110002F3B00082F3B00082F3B00082F3B000817
:100120002F3B00082F3B00082F3B00082F3B000807
:1001300000F002F800F0B4F80AA090E8000C824445
:100140008344AAF10107DA4501D100F0A9F8AFF222
:10015000090EBAE80F0013F0010F18BFFB1A43F0A5
:1001600001031847BC870000DC87000010F8013B42
:100170000A4413F0030408BF10F8014B1D1108BF17
:1001800010F8015B641E05D010F8016B641E01F8C5
:10019000016BF9D1002D15D010F8014B03F00C03C1
:1001A0000C2BA1EB04040ABF10F8013BA4EB831451
:1001B000A4EB032405F1010314F8016B5B1E01F8A5
:1001C000016BF9D5914238BF10F8013BD1D370478C
:1001D0000023002400250026103A28BF78C1FBD850
:1001E000520728BF30C148BF0B6070476E2906F028
:1001F0007380702906F0E783662907F00B8765296D
:1002000007F00887672907F005876129AFF30080A9
:1002100003681B0A28BF41F08001692905F0CA86DE
:10022000642905F0C786752905F0C4866F2906F094
:100230007583782906F0B383E92906F01183E42950
:1002400006F00E83F52906F00B83EF2906F0728382
:10025000F82906F0B2830368DB0928BF41F080016A
:10026000632906F08082732906F08582E32906F06F
:100270004D84F32906F05284002070471FB506F024
:10028000B1FB04000020002107F036F9401C60603B
:100290000020002107F01AF9E0601FBD10B510BD65
:1002A00006F0D0FC1146FFF7E9FF00F008F805F072
:1002B0007FFF03B4FFF7F2FF03BC03F08BFB01F0F9
:1002C0008BFD00BF00F0CCFC0028FBD101E002F068
:1002D000A4F9FCE7704700BFFEE700BFFEE700BFE0
:1002E000FEE700BFFEE770477047704770470000A9
:1002F0000CB50020019000906C48006840F48030FC
:100300006A49086000BF6948006800F40030009046
:100310000198401C0190009818B90198B0F5A06FA1
:10032000F1D16248006800F4003010B10120009063
:1003300001E0002000900098012843D15C4800684B
:1003400040F010005A4908600846006820F0030099
:1003500008600846006840F00200086053484068A2
:10036000524948600846406848600846406840F482
:10037000806048600846406820F47C104860084669
:10038000406840F4E81048600846006840F080701B
:10039000086000BF4548006800F000700028F9D0F0
:1003A0004248406820F003004049486008464068E1
:1003B00040F00200486000BF3C48406800F00C007C
:1003C0000828F9D10CBD10B5FFF792FF10BD10B58C
:1003D0003648006840F0010034490860084640682B
:1003E00034490840314948600846006832490840AD
:1003F0002E4908600846006820F4802008600846FE
:10040000406820F4FE0048604FF41F008860FFF74A
:10041000DAFF4FF000602949086010BD10B50021D7
:1004200000200022214B5B6803F00C0121B104295C
:1004300006D0082928D107E0214B224C236027E071
:100440001F4B204C236023E0184B5B6803F47010B3
:10045000164B5B6803F48032022303EB904022B911
:10046000194B4343174C23600DE0104B5B6803F4BA
:10047000003323B1144B4343124C236003E0104B71
:100480004343104C236003E00D4B0E4C236000BF30
:1004900000BF064B5B68C3F303130C4CE15C094BD4
:1004A0001B68CB40074C236010BD000000100240C9
:1004B000002002400000FFF8FFFFF6FE08ED00E01C
:1004C00000127A000000002000093D000400002016
:1004D00010B54FF48061F94803F0B7FC4FF40061A8
:1004E000F64803F0B2FC4FF40061F44803F0AFFCAF
:1004F0004FF48061F14803F0AAFC10BD10B54FF431
:100500008061EE4803F0A1FC4FF40061EB4803F07A
:100510009EFC4FF40061E94803F097FC10BD10B554
:100520004FF48061E54803F090FC4FF48061E348AC
:1005300003F08DFC10BD2DE9F04105462C464FF42B
:100540008061DE4803F083FC00261CE0274607F0AC
:100550008007802F04D13901D84803F076FC04E0ED
:100560004FF40061D54803F072FC6006040E4FF4AE
:100570008061D24803F069FC4FF48061CF4803F0FA
:1005800066FC701CC6B2082EE0DBBDE8F08110B539
:100590000446FFF79DFF7820FFF7CDFFFFF7BFFF71
:1005A0000020FFF7C8FFFFF7BAFF2046FFF7C3FFA1
:1005B000FFF7B5FFFFF7A2FF10BD10B50446FFF728
:1005C00087FF7820FFF7B7FFFFF7A9FF4020FFF76D
:1005D000B2FFFFF7A4FF2046FFF7ADFFFFF79FFF35
:1005E000FFF78CFF10BD70B504460D461DB1E0B29B
:1005F000FFF7E3FF02E0E0B2FFF7C9FF70BD70B59F
:100600000646002418E004F1B0000021FFF7EBFFDC
:1006100000210846FFF7E7FF00211020FFF7E3FF66
:10062000002505E001213046FFF7DDFF681CC5B25B
:10063000802DF7DB601CC4B2082CE4DB70BD06E043
:1006400041F6650100E0491E0029FCD1401E00284A
:10065000F6D17047014605E0002001E0421CD0B20F
:100660007B28FBDB0A00A1F10101F5D1704770B5D1
:1006700004460D4605F1B0000021FFF7B4FF10213C
:1006800041EA14100021FFF7AEFF04F00F00002133
:10069000FFF7A9FF70BD10B500218D20FFF7A3FF64
:1006A00000211420FFF79FFF0021AF20FFF79BFFE1
:1006B00010BD10B500218D20FFF795FF00211020FF
:1006C000FFF791FF0021AE20FFF78DFF10BD70B541
:1006D000002418E004F1B0000021FFF784FF00219E
:1006E0000846FFF780FF00211020FFF77CFF002560
:1006F00005E001210020FFF776FF681CC5B2802DC0
:10070000F7DB601CC4B2082CE4DB70BD70B50024BC
:1007100018E004F1B0000021FFF765FF0021084652
:10072000FFF761FF00211020FFF75DFF002505E0C6
:1007300001210846FFF757FF681CC5B2802DF7DB83
:10074000601CC4B2082CE4DB70BD2DE9F0470746FD
:100750000E469046994600250024A8F12000C5B217
:100760007F2F02DD0027B01CC6B2B9F1100F24D1D3
:1007700031463846FFF77BFF002408E004EB051103
:100780004F4A505C0121FFF72EFF601CC4B2082CB9
:10079000F4DB701CC1B23846FFF769FF002409E0A2
:1007A00004EB05110831464A505C0121FFF71BFF9D
:1007B000601CC4B2082CF3DB12E031463846FFF768
:1007C00056FF00240AE005EB45013E4A02EB4101D9
:1007D000085D0121FFF707FF601CC4B2062CF2DBA5
:1007E000BDE8F08710B50246012000E050430B0041
:1007F000A1F10104E1B2F9D110BD2DE9FF5F074677
:1008000091461E460E9D4FF0000A002435E0301B35
:10081000401EC1B20A20FFF7E5FFB9FBF0F00A2144
:10082000B0FBF1F201FB1208BAF1000F14D1701EF7
:10083000A04211DDB8F1000F0CD1AB4605EBDB7126
:10084000491001FB0471C8B22B4620220199FFF721
:100850007CFF10E04FF0010AAB4605EBDB7149105D
:1008600001FB0471C8B208F13001CAB22B460199EC
:10087000FFF76BFF00BF601CC4B2B442C7DBBDE82A
:10088000FF9F2DE9F04104460F4615469846002685
:100890000FE0AA5D434639462046FFF756FF04F1B4
:1008A0000800C4B2782C02DD0024B81CC7B2701C4A
:1008B000C6B2A85D0028ECD1BDE8F081000C014073
:1008C00040820008188000082DE9F04180460E465D
:1008D0001546002731464046FFF7C9FE00240AE0CE
:1008E000FE4A02EB8511085D0121FFF77CFE781CB2
:1008F000C7B2601CC4B2102CF2DB701CC1B24046FF
:10090000FFF7B5FE00240CE06900491CF34A02EB36
:100910004111085D0121FFF766FE781CC7B2601C1B
:10092000C4B2102CF0DBBDE8F0812DE9F05F064683
:100930000F4690461C46DDF828A04FF0000BE1174B
:1009400004EB5171C910A4EBC10131B92046E11784
:1009500004EB5171C1F3C70506E02046E11704EB33
:100960005171C910491CCDB23D4615E029463046AB
:10097000FFF77DFEB1460BE059460BF1010B1AF86B
:1009800001000121FFF72FFE09F1010000F0FF092E
:10099000C145F1DB681CC5B2A542E7DBBDE8F09FAD
:1009A00070B502241BE004F1B0000021FFF71BFE2C
:1009B00000210846FFF717FE00211020FFF713FE65
:1009C000002508E0C64901EBC501085D0121FFF7DC
:1009D0000AFE681CC5B2802DF4DB601CC4B2082C72
:1009E000E1DB70BD2DE9F04705460C4617464FF098
:1009F00000097F2D01DC3F2C01DDBDE8F08720469A
:100A0000E11704EB5171C910C1F10701CEB2E11732
:100A100004EB5171C910A4EBC10101F0FF08C8F14A
:100A200007010120884000F0FF0957B1AC4800EBF6
:100A3000C500805D40EA0900A94901EBC501885560
:100A400009E0A74800EBC500805D20EA0900A44941
:100A500001EBC5018855FFF7A3FF00BFCDE72DE9E6
:100A6000F04706460F4690469946DDF820A03446EA
:100A70000CE03D4606E0524629462046FFF7B2FF0D
:100A8000681CC5B24D45F6DD601CC4B24445F0DDBE
:100A9000FFF786FFBDE8F08708B50121082003F0C5
:100AA000E3FB4FF44060ADF8000010208DF8030028
:100AB00003208DF8020069468A4803F019F94FF4C3
:100AC0004061884803F0C1F9C82002F050FF0021BE
:100AD000AE20FFF788FD00210846FFF784FD0021C6
:100AE0001020FFF780FD00214020FFF77CFD002152
:100AF000B020FFF778FD00218120FFF774FD002171
:100B0000FF20FFF770FD0021A120FFF76CFD002101
:100B1000A620FFF768FD0021A820FFF764FD002153
:100B20003F20FFF760FD0021C820FFF75CFD00219A
:100B3000D320FFF758FD00210846FFF754FD0021A0
:100B4000D520FFF750FD00218020FFF74CFD00214C
:100B5000D820FFF748FD00210520FFF744FD0021C4
:100B6000D920FFF740FD0021F120FFF73CFD0021D7
:100B7000DA20FFF738FD00211220FFF734FD0021B5
:100B8000DB20FFF730FD00213020FFF72CFD002196
:100B90008D20FFF728FD00211420FFF724FD002100
:100BA000AF20FFF720FDFFF792FD08BD2DE9FF4FB5
:100BB00089B081468A4693460024ABEB090006F0D3
:100BC0001AFFCDE904010C99A1EB0A0006F013FF0E
:100BD0000022454BCDE9000106F074FFCDE902018A
:100BE000DDE9042306F052FD07468846484606F034
:100BF00019FF3A464346CDE9000106F063FFCDE90F
:100C00000401504606F00EFFCDE90201DDE90423A0
:100C100007F08CF8CDE906014C461CE0204606F0B2
:100C2000EAFE3A464346CDE9020106F04BFFCDE924
:100C30000401DDE9062306F075FC05460E4628464C
:100C4000314606F0ABFEC0B20590E0B2169A0599A7
:100C5000FFF7C8FE641C5C45E0DD0DB0BDE8F08F19
:100C600010B501F010FE0446012C24D11D220321F1
:100C70000820FFF729FE1E2203211A20FFF724FE79
:100C80001F2203212C20FFF71FFE202203213E20DC
:100C9000FFF71AFE212203215020FFF715FE222222
:100CA00003216220FFF710FE232203217420FFF7A7
:100CB0000BFE002010BD1D2203210820FFF704FEBB
:100CC0001E2203211A20FFF7FFFD1F2203212C20E3
:100CD000FFF7FAFD202203213E2007E03400002028
:100CE000DC830020000C01400000F03FFFF7ECFD2A
:100CF000242203215020FFF7E7FD25220321622053
:100D0000FFF7E2FD232203217420FFF7DDFD00F051
:100D100067F80120CEE7000008B50121102003F09C
:100D2000A3FA10208DF803004002ADF80000032064
:100D30008DF8020069465B4802F0DAFF4FF400517B
:100D4000584803F084F808BD10B5012056490860E2
:100D50004FF4487002F00BFE00205449C1F8B40172
:100D60004FF4487002F003FE01204F490860C8208C
:100D700002F0FDFD00204D49C1F8B4014FF4487068
:100D800002F0F5FD10BD10B50120474908604FF491
:100D9000487002F0ECFD00204449C1F8B4014FF462
:100DA000487002F0E4FD01203F490860C82002F0CD
:100DB000DEFD00203D49C1F8B4014FF4487002F057
:100DC000D6FD012038490860C82002F0D0FD00207F
:100DD0003649C1F8B4014FF4487002F0C8FD10BDA7
:100DE00010B5FFF7D0FF01202F490860C82002F09E
:100DF000BEFD00202D49C1F8B4014FF4487002F047
:100E0000B6FD10BD10B5FFF7EBFF012026490860C5
:100E1000C82002F0ACFD00202449C1F8B4014FF411
:100E2000487002F0A4FD10BD10B501201E490860F5
:100E30004FF4487002F09BFD00201C49C1F8B4013A
:100E40004FF4487002F093FD0120174908604FF4F9
:100E5000487002F08CFD00201449C1F8B4014FF431
:100E6000487002F084FD01200F490860C82002F09C
:100E70007EFD00200D49C1F8B4014FF4487002F026
:100E800076FD01200949C1F8B401C82002F06FFDC8
:100E900000200649C1F8B4014FF4487002F067FD24
:100EA00010BD000000100140B401224200002242A7
:100EB00010B59448006820F00F0092490860084679
:100EC000006840F00C00086000208F49086040F284
:100ED000EE2002F028FD01208C49C1F888010F2086
:100EE00002F021FD10BD10B500248648006820F0F6
:100EF0000F00844908600846006840F02000086040
:100F000004E0601CC4B2012002F00DFD7E48803870
:100F1000006808B1C82CF4DBC82C01DB012010BD2F
:100F2000002404E0601CC4B2012002F0FCFC7648FE
:100F30008038006808B9F02CF4DBF02C01DB0120CC
:100F4000EDE70020EBE710B56E48006820F00F00D9
:100F50006C4908600846006840F00C0008600020FA
:100F600069490860022002F0DEFC01206749C1F8EF
:100F700088016448006820F00F0062490860084654
:100F8000006840F0200008600C2002F0CCFC5E48B5
:100F90008038006808B1012400E00024322002F00B
:100FA000C2FC204610BD70B50026012508E0FFF701
:100FB000CAFF0446E00140EA6600C6B2681CC5B23A
:100FC000082DF4DD304670BD70B504464D4800680C
:100FD00020F00F004B4908600846006840F00C0004
:100FE0000860012520E004F0010664106EB10020C5
:100FF00045490860022002F096FC01204349C1F8EF
:1010000088013C2002F08FFC0CE000203E49086083
:101010003C2002F088FC01203C49C1F888010220F4
:1010200002F081FC681CC5B2082DDCDD70BD10B576
:10103000FFF73EFFFFF757FFCC20FFF7C5FF442027
:10104000FFF7C2FF10BD08B50121102003F00CF915
:101050000420ADF8000010208DF8030003208DF867
:1010600002006946274802F043FE0421254802F0A9
:10107000ECFEFFF71DFFFFF736FF08BD2DE9F84F27
:10108000FFF7D5FFFFF714FFFFF72DFFCC20FFF789
:101090009BFFBE20FFF798FFFFF785FF8346FFF712
:1010A00082FF0446072C08DDE043C4B26FEA0B0060
:1010B00000F0FF0B4FF0000A01E04FF0010AA146DB
:1010C0004FEA09200FFA80F909EB0B000FFA80F9BB
:1010D000484606F041FF009006F012FF0746002246
:1010E0000B4B06F0EFFC054606F028FC0FFA80F9E2
:1010F000BAF1000F02D04846BDE8F88FC9F10000F0
:1011000000B2F9E7001001408801224200002242AB
:101110000000E43F10B5262203211820FFF7D4FB7E
:10112000272203212A20FFF7CFFB282203213C207E
:10113000FFF7CAFB292203214E20FFF7C5FB2A2215
:1011400003216020FFF7C0FBFFF76EFE10BD10B556
:10115000042200210846FFF7B7FB052200211520D5
:10116000FFF7B2FB062200212A20FFF7ADFB072282
:1011700000213F20FFF7A8FB082200215420FFF7A1
:10118000A3FB092200216920FFF79EFB0A2206210A
:101190000020FFF799FB0C2206211020FFF794FB9B
:1011A0000E2206212020FFF78FFB0F220621302080
:1011B000FFF78AFB102206214020FFF785FB112252
:1011C00006215020FFF780FB122206216020FFF746
:1011D0007BFB132206217020FFF776FB10BD08B5BC
:1011E0000DE04FF4487002F0C2FBFFF770FA1023D5
:1011F000F6A202211846FFF744FBFFF7A5FD01F018
:101200001EF90028EDD1FFF7A2FF1023F3A202215F
:101210000020FFF736FB0C200090F2488288042360
:1012200002213020FFF7E9FA0C232D220221482069
:10123000FFF78BFA0C200090EA48827902231946C6
:101240004C20FFF7DAFA0C232D2202215820FFF759
:101250007CFA0C200090E348C279022319465C20F6
:10126000FFF7CBFA0C200090DE480278022303211E
:101270003020FFF7C2FA0C233A2203213C20FFF76B
:1012800064FA0C200090D7484278022303214020C2
:10129000FFF7B3FA0C233A2203214C20FFF755FA4B
:1012A0000C200090CF488278022303215020FFF7C2
:1012B000A4FA08BD08B50DE04FF4487002F057FBE2
:1012C000FFF705FA1023C1A202210020FFF7D9FA87
:1012D000FFF73AFD01F0B3F80028EDD11023BFA2CB
:1012E0000221FFF7CEFA0C200090BE48828804232A
:1012F00002213020FFF781FA0C232D220221482001
:10130000FFF723FA0C200090B64882790223194691
:101310004C20FFF772FA0C232D2202215820FFF7F0
:1013200014FA0C200090AF48C279022319465C20C1
:10133000FFF763FA0C200090AA48027802230321E9
:101340003020FFF75AFA0C233A2203213C20FFF702
:10135000FCF90C200090A34842780223032140208E
:10136000FFF74BFA0C233A2203214C20FFF7EDF94B
:101370000C2000909B488278022303215020FFF725
:101380003CFA08BD2DE9F0478AB016E0964800689F
:10139000401C95490860FFF79AF9102393A2022197
:1013A0000020FFF76EFAFFF7EEFC8F480068032875
:1013B00003D100208C49086003E0FFF744FE0028B9
:1013C000E4D100BFFFF75AFE8D4908800846B0F906
:1013D00000000A2190FBF1F201FB120A504606F0D0
:1013E0000AFB0646874A884B06F06CFB8046894616
:1013F0008348B0F900000A2190FBF1F6304606F070
:10140000FAFA42464B46CDE9000106F08BF8044655
:101410000D4622462B467DA102A804F065FD7DA065
:1014200001F0B1FB7DA001F0AEFB02A801F0ABFB27
:101430007AA001F0A8FBFFF78AFE102378A2022110
:101440000020FFF71EFA6E48B0F900000A2190FB59
:10145000F1F6102002233246194600903020FFF7A3
:10146000CCF910232E2202214020FFF76EF96448A8
:10147000B0F900000A2190FBF1F201FB12061020E6
:1014800001233246022100904820FFF7B6F91422CA
:1014900002215A20FFF718FA102343220221642068
:1014A000FFF753F90AB0BDE8F0872DE9F0478AB09D
:1014B00016E05D480068401C5B490860FFF707F9CB
:1014C00010234AA202210020FFF7DBF9FFF75BFCA3
:1014D00055480068032803D100205349086003E001
:1014E000FFF7B1FD0028E4D100BFFFF7C7FD444975
:1014F00008800846B0F900000A2190FBF1F201FBD8
:10150000120A504606F077FA06463E4A3E4B06F06F
:10151000D9FA804689463A48B0F900000A2190FB82
:10152000F1F6304606F067FA42464B46CDE9000137
:1015300005F0F8FF04460D4622462B4633A102A8CB
:1015400004F0D2FC33A001F01EFB34A001F01BFB21
:1015500002A801F018FB31A001F015FB102330A206
:1015600002210020FFF78DF92548B0F900000A217B
:1015700090FBF1F6102002233246194600903020ED
:10158000FFF73BF910232E2202214020FFF7DDF860
:101590001B48B0F900000A2190FBF1F201FB120692
:1015A000102001233246022100904820FFF725F940
:1015B000142202215A20FFF787F910234322022127
:1015C0006420FFF7C2F80AB0BDE8F0875254432008
:1015D0004572726F72212121000000004461746520
:1015E0003A000000DC870020148300204453313887
:1015F000423230204572726F7221212100000000BA
:10160000F88200209A9999999999B93F25372E31F6
:101610006C6600005420203A000000000D0A000013
:1016200054656D703A0000001883002010B5044620
:10163000FFF74DF8FFF7D3FDA0B202F098F9A0B282
:1016400002F095F9A0B202F092F9A0B202F08FF97F
:10165000FFF73DF8FFF796FEA0B202F088F9A0B2BE
:1016600002F085F9FFF733F810BD38B504461522AE
:1016700000210A20FFF728F9162200212220FFF777
:1016800023F9172200213A20FFF71EF91822002122
:101690005220FFF719F91020012322460021009063
:1016A0007420FFF7AAF8012000237F22194600903A
:1016B0001846FFF7D4F901202F230022114600908D
:1016C0001046FFF7CCF938BD2DE9F05F05460E4610
:1016D00091469A460024D5E90001C6E90001D5E902
:1016E0000001C9E9000100BF10E005EBC400D6E924
:1016F00000733A46D0E900B1584606F0E1FA04D248
:1017000005EBC40003C8C6E90001641C5445ECDBCA
:10171000002410E005EBC400D9E900733A46D0E993
:1017200000B1584606F092F904D205EBC40003C894
:10173000C9E90001641C5445ECDBBDE8F09F2DE9CC
:10174000F04FADF50F7D00208E9083460026814638
:101750000320FFF78AFF4FF4A0630AAA0CA9F748F9
:10176000FFF7B2FF00221346DDE90A0106F06EF929
:1017700004D2DDE90A4080F0004501E0002425465E
:10178000002675E0EE480068A6EBC010801C8E9025
:10179000DDE90A23DDE90C0106F0C8FACDE9020112
:1017A000E64800EBC601D1E9007122462B463846D7
:1017B00005F0B8FECDE90001DDE9022305F066FF82
:1017C0000022E04BCDE9040106F07CF90022DE4B5B
:1017D000CDE9060105F0A6FECDE9080106F0AEF858
:1017E0008346D7480068A6EBC0100EA941F820B088
:1017F0000BF0FF018E9AD0B20122FFF7F3F8701CB4
:10180000C11700EB5161C911A0EBC11179BB4FF0B9
:1018100000090AE00EAA12F8291009F10202D0B25A
:101820000022FFF7DFF809F10109B9F1800FF1DBC0
:10183000C3480068401CC249086000F0A5FB82460E
:10184000BAF1020F04D1C1480068401CBF490860CA
:10185000BE49086800EBD0714910A0EB410131B1DD
:101860000020B7490860FEF732FF00F0B1F8761C9F
:10187000B6F5A06F86DB0020B14908600DF50F7D3D
:10188000BDE8F08F2DE9F04FADF50F7D00208E9073
:101890008346002681460220FFF7E7FE4FF4A0634F
:1018A0000AAA0CA9AA48FFF70FFF00221346DDE998
:1018B0000A0106F0CBF804D2DDE90A4080F00045C9
:1018C00001E000242546002677E0A2480068A6EB48
:1018D000C010801C8E90DDE90A23DDE90C0106F0C2
:1018E00025FACDE902019A4800EBC601D1E9007161
:1018F00022462B46384605F015FECDE90001DDE90C
:10190000022305F0C3FE00228E4BCDE9040106F050
:10191000D9F800228C4BCDE9060105F003FECDE994
:10192000080106F00BF883468A480068A6EBC01051
:101930000EA941F820B00BF0FF018E9AD0B201221F
:10194000FFF750F8701CC11700EB5161C911A0EBF3
:10195000C11181BB4FF000090AE00EAA12F829104C
:1019600009F10202D0B20022FFF73CF809F10109A7
:10197000B9F1800FF1DB77480068401C75490860B9
:1019800000F002FB8246BAF1020F04D172480068EF
:10199000401C714908607049086800EBD07149101B
:1019A000A0EB410139B100206A490860FEF78FFEC3
:1019B000FFF7C5FE04E0FFE7761CB6F5A06F84DBF9
:1019C00000BF0020634908600DF50F7DBDE8F08F72
:1019D0002DE9F04FADF50F7D4FF0000BDA460026F4
:1019E000B14600208E900120FFF73FFE4FF4A06328
:1019F0000AAA0CA95948FFF767FE00221346DDE941
:101A00000A0106F023F804D2DDE90A4080F000451F
:101A100001E0002425460026ADE051480068A6EB11
:101A2000C01000F1020BDDE90A23DDE90C0106F02C
:101A30007DF9CDE90201494800EBC60022462B465C
:101A4000D0E90071384605F06DFDCDE90001DDE912
:101A5000022305F01BFE00223A4BCDE9040106F0FB
:101A600031F80022384BCDE9060105F05BFDCDE9E8
:101A7000080105F063FF824639480068A6EBC010F4
:101A80000EA941F820A00AF0FF010BF0FF0001228F
:101A9000FEF7A8FF701CC11700EB5161C911A0EB44
:101AA000C111002966D189460AE00EAA12F8291050
:101AB00009F10202D0B20022FEF794FF09F10109F8
:101AC000B9F1800FF1DB26480068401C244908600A
:101AD00000F05AFA8E908E98022804D121480068AE
:101AE000401C204908601F490868C11700EB91712C
:101AF0008910A0EB810101B31A490868C11700EBF6
:101B000091718910A0EB8101012904D1FEF7DFFD5D
:101B1000FFF7B8FE33E013490868C11700EB917175
:101B20008910A0EB810102291ED1FEF7D0FDFFF73D
:101B300006FE00200A49086021E01BE0F85A002058
:101B40002C8300200080464000002040308300208D
:101B5000F83200202483002028830020F80A002087
:101B60001C83002020830020FEF7B1FD0020DE4909
:101B7000086004E0761CB6F5A06FFFF64EAF00BF1C
:101B80000020D94908600DF50F7DBDE8F08F08B53C
:101B9000192200211020FEF797FE1A22002128208A
:101BA000FEF792FE1B2200214020FEF78DFE1C2234
:101BB00000215820FEF788FE192204210820FEF794
:101BC00083FE1A2204212020FEF77EFE10233A22F3
:101BD00004213220FEF7B9FD102002234B220421FC
:101BE00000904420FEF709FE1023C0A204216020CB
:101BF000FEF747FE08BD2DE9F04FADF50F7D82469B
:101C000000208E908346002681460120FFF72DFD9F
:101C10004FF4A0630AAA0CA9B548FFF755FD0022AE
:101C20001346DDE90A0105F011FF04D2DDE90A409F
:101C300080F0004501E000242546002679E0AD480B
:101C40000068A6EBC010801C8E90DDE90A23DDE958
:101C50000C0106F06BF8CDE90201A54800EBC600C7
:101C600022462B46D0E90071384605F05BFCCDE9F1
:101C70000001DDE9022305F009FD00229E4BCDE9BC
:101C8000040105F01FFF00229C4BCDE9060105F081
:101C900049FCCDE9080105F051FE834695480068EE
:101CA000A6EBC0100EA941F820B00BF0FF018E9AF0
:101CB000D0B20122FEF796FE701CC11700EB5161F5
:101CC000C911A0EBC11179BB4FF000090AE00EAABF
:101CD00012F8291009F10202D0B20022FEF782FEAA
:101CE00009F10109B9F1800FF1DBFEF7F0FCFFF714
:101CF0004EFF1FFA8AF001F03AFEFEF7E8FC7D483D
:101D00000068401C7B4908607D490868C11700EBEA
:101D100091718910A0EB8101012906D0FEF7D7FC53
:101D200000207449086007E002E00120FFF79DFCF5
:101D3000761CB6F5A06F82DB00BF00206D490860FD
:101D40000DF50F7DBDE8F08F10B500F01DF90446CC
:101D5000022C02D0032C2CD115E06A480068401CEC
:101D600068490860086800EBD0714910A0EB410198
:101D700021B9FEF7ACFCFFF79DFA1AE0FEF7A7FCCD
:101D8000FFF793FB15E060480068401C5E4908605F
:101D9000086800EBD0714910A0EB410121B9FEF7B2
:101DA00096FCFFF715FE04E0FEF791FCFFF7EFFE4F
:101DB00000BF00BF10BD70B50546002400BF07E09E
:101DC00055F8240018B9FFF7A5F9012070BD641C6F
:101DD000052CF5DB0020F9E710B501F08BFD4FF481
:101DE000165001F006FE01F0EFFDFEF755FEFEF77E
:101DF00093FF00F011F900F0A3FB00F063FC01F089
:101E000008F901F04AF801F074FC01F0C1FC01206E
:101E100001F04CF901F0CEF900BF3C48FFF7CBFFD1
:101E20000028FAD101F0E8F910BD10B501F0F0F981
:101E3000002037490870AFF61C0000F0A4FE35A062
:101E400000F0A1FEAFF62C0000F09DFE802233488A
:101E50000168274800F01FFDAFF6400000F093FE38
:101E60002FA000F090FEAFF64C0000F08CFE802218
:101E70002A4801682C4800F00EFDAFF6600000F023
:101E800082FEAFF6680129A000F07DFEAFF6740077
:101E900000F079FE802221480168264800F0FBFC12
:101EA000AFF6880000F06FFE1C480068401C1B491C
:101EB00008600846027801680D4801F037F81748B5
:101EC00002780168184801F031F814480278016876
:101ED000184801F02BF811480068092802D10020A9
:101EE0000E49086010BD00001C83002062706D0068
:101EF000F80A002034830020008046400000204083
:101F000004830020088300200C8300202000002090
:101F10006C8300204543474368313A00108300201A
:101F20004543474368323A00F8320020454347436F
:101F300068333A00F85A002008B50121182002F051
:101F400093F90121314801F0A4FF2020ADF80000F1
:101F500048208DF8030069462D4801F0C9FE012094
:101F6000ADF8000048208DF803006946294801F0CB
:101F7000BFFE0220ADF8000048208DF8030069463E
:101F8000244801F0B5FE08BD10B52021204801F01D
:101F900042FF48B101211F4801F03DFF20B102215D
:101FA0001C4801F038FF70BB0A2001F0E0FC202142
:101FB000174801F030FF40B900BF2021144801F05C
:101FC0002AFF0028F9D0012010BD0121114801F09D
:101FD00022FF40B900BF01210E4801F01CFF00287C
:101FE000F9D00220F0E702210A4801F014FF40B9BD
:101FF00000BF0221074801F00EFF0028F9D003209E
:10200000E2E70020E0E7FFE700BFDDE70002300085
:1020100000100140000C014008B50121042002F02D
:1020200023F910208DF803000001ADF80000032013
:102030008DF802006946604801F05AFE4FF4807145
:102040005D4801F002FF10208DF80300C001ADF8DB
:10205000000003208DF802006946574801F048FE51
:102060004FF40061544801F0F0FE10208DF8030099
:102070000002ADF8000003208DF8020069464E48CA
:1020800001F036FE4FF480514B4801F0DEFE08BDF2
:102090002DE9F05F05460E4617469846DDE90BAB85
:1020A000DDF828900024E5B9444805604448C0F8AC
:1020B000AC6142481030076000BF04E01FFA8BF0AB
:1020C00001F055FC641C4445F8DBE8433B490860DB
:1020D000002404E01FFA8BF001F049FC641C444525
:1020E000F8DBEEB9354805603548C0F8AC613348D7
:1020F00010300760002404E00D9988B201F037FC2D
:10210000641C4C45F8DBF0432C490C31086000247A
:1021100004E00D9988B201F02AFC641C4C45F8DB00
:10212000EFB9264805602648C0F8AC612348103056
:102130000760002404E00E9988B201F018FC641CCA
:102140005445F8DBF8431D4910310860002404E0D1
:102150000E9988B201F00BFC641C5445F8DBBDE815
:10216000F09F10B5002015490860642001F0FFFBC6
:1021700001201349C1F8A001642001F0F8FB002000
:102180000E490C310860642001F0F1FB01200C497C
:10219000C1F8AC01642001F0EAFB002007491031CE
:1021A0000860642001F0E3FB01200549C1F8B0019B
:1021B000642001F0DCFB10BD00080140A0012142B9
:1021C0000000214208B503208DF8000000208DF8A2
:1021D00001008DF8020001208DF80300684601F02F
:1021E000BEFC08BDF0B503460C461546642093FBC3
:1021F000F0F0C6B2642093FBF0F700FB1730C1B2D9
:10220000132E02DD01F16400C1B20846CF1701EBC5
:10221000977701EBA707BAB2072092FBF0F700FB14
:10222000172082B25719601EDFF8F8C21CF80000B0
:10223000384482B2CF1701EB9777BF10A1EB870725
:102240001FB9032C01DA501E82B2072092FBF0F76F
:1022500000FB1720C0B2F0BD0146CA1701EB927215
:102260009210A1EB820292B9642091FBF0F200FB84
:10227000121050B94FF4C87091FBF0F200FB12102D
:1022800008B9012070470020FCE70120FAE7002090
:10229000F8E770B500260024002502F035FB06465D
:1022A000A148B6FBF0F4A1480088A0423CD09F4969
:1022B0000C8040F2B27510E02846FFF7CDFF40B128
:1022C000B4F5B77F02D3A4F5B77404E0681C85B2F7
:1022D00006E0A4F26D14681C85B2B4F5B67FEBD8A5
:1022E00000BF93488580002516E091498888FFF754
:1022F000B3FF30B1012D04D11D2C01D31D3C09E0E9
:102300000CE08C48405DA04203D88A48405D241A06
:1023100000E003E0681C85B21C2CE6D200BF681CFC
:1023200083498871601CC8717F48B6FBF0F100FBDF
:1023300011644FF46160B4FBF0F07D4908704FF414
:102340006160B4FBF0F100FB11403C21B0FBF1F007
:10235000774948704FF46160B4FBF0F100FB114025
:102360003C21B0FBF1F201FB1200714988700B4671
:10237000DA7999799888FFF735FF6D49087200205E
:1023800070BD2DE9F05F06460F4690469946DDE99F
:102390000AAB002440F2B270864203DB40F6330001
:1023A000864202DD0120BDE8F09F40F2B2750AE0EE
:1023B0002846FFF751FF10B15F48044401E05F4831
:1023C0000444681C85B2B542F2DB781EC7B2002512
:1023D00010E05848405D40F2A321484304EBC0148C
:1023E0003046FFF739FF18B1012D01D14E480444A2
:1023F000681C85B2BD42ECDBA8F1010040F2A321CC
:10240000484304EBC014C9EB4910C0EB092004EBAE
:102410000014CAEB0A1004EB80045C4401214FF065
:10242000C05001F02EFF012002F0F3F9204602F027
:1024300074FA02F0A5FAFFF72CFF0020B3E71CB5F1
:102440000024042002F0ADF945F25001884247D043
:1024500001214FF0C05001F014FF012002F0D9F922
:1024600002F06AF9012001F06CFE04E0601CC4B2C5
:102470000A2001F07CFA412001F0CBFD0028F5D0C4
:10248000FA2C01DB01201CBD4FF4807001F075FEB9
:10249000012001F078FE02F073FA02F07AFA0121CD
:1024A000084602F011FA02F06BFA02F01AFA47F647
:1024B000FF7002F03FFA02F063FA372027210B2366
:1024C0001322CDE90010052140F2E170FFF759FF1A
:1024D00002F010FA45F25001042002F056F907E02C
:1024E00002F057FA0121084602F0EEF902F048FA2C
:1024F000FFF768FEFFF7CDFE0020C4E710B501200E
:1025000002F06CFA08B1FFF7C4FE022002F066FA8E
:1025100010B1022002F072FA052002F06FFA02F008
:102520002FFA10BD30880008805101003883002048
:10253000DC8700203C8800080085E2018033E1014F
:102540000EB50121084601F08FFEFFF7F5FC0521CD
:10255000022001F0E3FC2020019000208DF808000B
:102560000C208DF8090001208DF80A0001A802F066
:102570005DFA17208DF8000002208DF8010001207F
:102580008DF802008DF80300684601F0E8FA0EBDF0
:1025900010B547A003F09CFC0A2001F0E8F92021C7
:1025A000454801F038FC40B944480068401C4349A4
:1025B0000860084600684249086000BF20213E4884
:1025C00001F029FC0028F9D0202002F0A6FA10BD65
:1025D0003A490868C11700EB91718910A0EB81019D
:1025E00009B90020704735490868C11700EB91719F
:1025F0008910A0EB8101012901D10120F2E72F49C7
:102600000868C11700EB91718910A0EB81010229C4
:1026100001D10320E6E70220E4E710B586B00024EC
:10262000FFF7D6FF044634B1012C15D0022C2AD076
:10263000032C39D122E000206422CDE9010203906D
:10264000049001231A4619460090FFF721FD4FF42C
:10265000FA50FEF7EBFF27E0002064210190CDE95E
:102660000201049001200023024619460090FFF762
:102670000FFD4FF47A70FFF7BEFA15E0FFF771FD1A
:10268000FFF7D3FB00BF642000210123CDE9013116
:10269000CDE903100B460A46009101210846FFF7D9
:1026A000F7FCFFF751FB00BF00BF06B010BD0000F4
:1026B0006B6579300D0A0000001001403C8300205A
:1026C0000483002008B50121142001F0CDFD022073
:1026D000ADF8000048208DF8030003208DF80200BB
:1026E0006946894801F004FB0120ADF80000102084
:1026F0008DF8030003208DF802006946824801F03E
:10270000F7FA4FF4165000F0B4F901207F49086041
:1027100008BD70B50F2630E001207C4908600A2012
:1027200001F025F97AA000F02EFA00250AE00A202F
:1027300001F01DF97948008800F4004000B103E081
:10274000681CC5B2142DF2DB00BF00206F49086081
:102750007248008800F4004078B170480478002086
:102760006E4908800D2C08D16D4800782B2804D1C3
:102770006B4880793038C4B204E03000A6F1010122
:10278000CEB2C9D100BF06B9FF24204670BD2DE9E5
:10279000F04105460F272FE001205C4908600A2020
:1027A00001F0E5F829465FA000F0EDF900205F494F
:1027B000C1F8800100260AE05848008800F4004073
:1027C00000B106E0052001F0D2F8701CC6B2142E4C
:1027D000F2DB00BF5148008800F4004060B14F4870
:1027E000047800204D490880042C05D14C4800781D
:1027F0004F2801D1002404E03800A7F10101CFB235
:10280000CAD100BF07B9FF242046BDE8F08170B5EA
:10281000044601203D4908600A2001F0A8F821463D
:1028200040A000F0B0F900260AE03C48008800F41F
:10283000004000B106E00A2001F099F8701CC6B211
:10284000322EF2DB00BF0020304908603348008898
:1028500000F4004048B13148057800202F49088035
:102860002F49485532A003F033FB70BD10B5FFF778
:1028700050FF012803D130A003F02AFB02E032A070
:1028800003F026FB10BD21487C38006808B1012008
:1028900070470020FCE72DE9F04389B005460E465D
:1028A00091460024F40129E005EBC4000022134600
:1028B000D0E90071384605F003FA0FD805EBC400E3
:1028C000D0E900733A4623A101A803F00DFB01A84B
:1028D00000F059F910A000F056F90EE005EBC40025
:1028E000D0E900733A461DA101A803F0FDFA01A842
:1028F00000F049F908A000F046F9641C4C45D3DB10
:1029000009B0BDE8F08300000010014080012242C0
:1029100041542B524F4C453F0D0A00004483002088
:10292000B088002025730D0A00000000000022423C
:102930000D0A257300000000524F4C453A4D61735B
:102940007465720A00000000524F4C453A536C61A6
:1029500076650A0025382E336C66000025392E3343
:102960006C66000010B5044644B100219E4803F097
:10297000CBF801219C4802F033FE03E000219A4885
:1029800002F02EFE10BD10B540F22551974801F01F
:102990008FFE00B3954801F00BFEC4B29448008846
:1029A000C82812DA0021904803F0AEF89048008859
:1029B00010B90120FFF7D6FF8D4801880088401C20
:1029C0008B4A10808B48445405E08948008840F4C5
:1029D00000408749088010BD7FB505460C4601219F
:1029E000042001F04EFCADF80450ADF8004000208A
:1029F000ADF80600ADF8020069467B4802F094FA93
:102A000001221146784802F006FE1E208DF80C00C7
:102A100001208DF80D0002208DF80E0001208DF8A8
:102A20000F0003A801F09BF87FBD70B58CB006467F
:102A30000C4615460121084601F009FC304602F01B
:102A400075F80194029510200390002004900590E1
:102A50008020069000200790089009904FF4805045
:102A60000A9000200B9001A9304602F001F90CB049
:102A700070BD10B586B004460121042001F0F4FBBE
:102A80000121480401F0FDFB584801F051FC0420ED
:102A9000ADF8100003208DF8120018208DF81300F7
:102AA00004A9554801F024F90820ADF810000420CD
:102AB0008DF8130004A9504801F01AF90094002081
:102AC000ADF80400ADF80600ADF80800ADF80C0054
:102AD0000C20ADF80A006946444801F06CFC012264
:102AE0008021424801F024FD444A4049091D4448E0
:102AF000FFF79BFF01213D4801F0E9FC012240F274
:102B000025513A4801F0EFFC26208DF814000220F0
:102B10008DF8150003208DF8160001208DF81700A0
:102B200005A801F01CF841F61F416320FFF754FF90
:102B300000202F490880FFF715FF06B010BD70B5C3
:102B400004460D462046294604F028FF86B2314649
:102B5000264801F029FD00BF8021244801F092FDA4
:102B60000028F9D070BD70B504460D4600212046FE
:102B700002F0A9F82946204602F0BAF801212046C1
:102B800002F0A1F870BD0FB438B505A800901B483D
:102B9000009A049903F08AF90020009000BF1848B9
:102BA00002F0A8F80028FAD1144803F007FBC4B2D9
:102BB00021461348FFF7D7FF38BC5DF814FB10B56A
:102BC0000121094802F0D5FF60B10948008840F4AE
:102BD0000040074908800121034802F0DBFF002084
:102BE000FFF7C0FE10BD0000000800400044004098
:102BF00044830020B088002000080140E8870020BE
:102C00008000024010B50446204600F0DBF910BDFC
:102C100010B5382000F036FA10BD10B5002000F0D5
:102C200031FA10BD08B50121082001F01DFB40203C
:102C3000ADF8000010208DF8030003208DF802008D
:102C40006946DD4801F054F84021DB4801F0FDF809
:102C500000F0DFF90120D949086008BD10B5012056
:102C6000D6490860FF20FFF7CDFF10BD10B5002446
:102C700000BFFF20FFF7C6FFFF2801D1002010BDD5
:102C8000641C6FF07F408442F3D30120F7E710B556
:102C90000020CA490860FFF7E9FF08B9002010BD0D
:102CA000FFF7DCFF0120FAE770B505464FF6FF7429
:102CB00001E0601E84B2FF20FFF7A4FFA84201D00C
:102CC000002CF6D10CB9FF2070BD0020FCE770B5D8
:102CD00004460D46FE20FFF7E7FF08B1012070BD56
:102CE00004E0FF2000F06EF92070641C2800A5F1BC
:102CF00001018DB2F5D1FF20FFF784FFFF20FFF720
:102D000081FF0020EBE770B506460D46FFF7AEFFEA
:102D100008B1012070BD2846FFF774FFFD2D19D0C2
:102D2000002404E0305D00F04DF9601C84B2B4F57D
:102D3000007FF7DBFF20FFF765FFFF20FFF762FF53
:102D4000FF20FFF75FFF044604F01F00052801D0B5
:102D50000220DFE70020DDE72DE9F04105460C46C3
:102D600017464FF00008FFF779FFFFF790FF10B10B
:102D7000FF20BDE8F08145F04000FFF743FF200E43
:102D8000FFF740FFC4F30740FFF73CFFC4F3072001
:102D9000FFF738FFE0B2FFF735FF3846FFF732FFA5
:102DA0000C2D02D1FF20FFF72DFF4FF01F0800BFB1
:102DB000FF20FFF727FF064606F0800030B15FEAEC
:102DC0000800A8F1010101F0FF08F1D13046D0E779
:102DD00070B50546012200210A20FFF7BDFF044619
:102DE00024B910212846FFF772FF0446FFF736FF8B
:102DF0000CB1012070BD0020FCE770B50546012232
:102E000000210920FFF7A8FF044624B91021284615
:102E1000FFF75DFF0446FFF721FF0CB1012070BDF5
:102E20000020FCE77FB56846FFF7E7FF10B1002000
:102E300004B070BD9DF8000000F0C000402809D12A
:102E40009DF809009DF8081000EB0120401C84B299
:102E5000A50220E09DF8050000F00F009DF80A1083
:102E600000EBD1109DF8091001F0030100EB4100C7
:102E7000861C9DF8080080119DF8071000EB81006A
:102E80009DF8061001F0030100EB8120441CA6F11F
:102E9000090004FA00F52846CAE710B5FFF7C2FE9C
:102EA000FFF7B6FE0020044605E0FF20FFF7AAFE6C
:102EB000601C80B204460A2CF7DB10BD2DE9F041FE
:102EC00006460F4615463E480078062800D07F0289
:102ED000012D0CD1012239461120FFF73DFF044698
:102EE000FCB969023046FFF7F2FE044619E0012200
:102EF00039461220FFF730FF044600BF4FF400713F
:102F00003046FFF7E4FE044606F50076681EC0B2C0
:102F1000050001D0002CF1D0012200210C20FFF788
:102F20001BFFFFF79BFE2046BDE8F0812DE9F04135
:102F300006460F46154622480078062800D07F0234
:102F4000012D0CD1012239461820FFF705FF044658
:102F50006CBBFE213046FFF7D6FE044627E018483A
:102F60000078012809D0012200213720FFF7F4FE64
:102F7000012229461720FFF7EFFE012239461920CA
:102F8000FFF7EAFE044694B900BFFC213046FFF784
:102F9000BAFE044606F50076681EC0B2050001D0F0
:102FA000002CF2D0FD210020FFF7ADFE0446FFF714
:102FB00055FE2046BDE8F081000C01409881214279
:102FC0004683002070B50546002405E0601CC4B2AD
:102FD000C82C01DD002070BD0221314802F02DFF18
:102FE0000028F3D029462E4802F0D4FE002405E044
:102FF000601CC4B2C82C01DD0020ECE70121284888
:1030000002F01BFF0028F3D0254802F0C5FEC0B235
:10301000E1E708B50121082001F026F90121C803E4
:1030200001F02FF93820ADF8000018208DF80300CA
:1030300003208DF8020069461A4800F059FE382135
:10304000184800F002FF0020174908804FF48270F2
:103050004880002088800220C8800120088140022A
:103060004881382088810020C881072008820C48C8
:1030700002F0BAFD01210A4802F05BFEFF20FFF7D3
:10308000A1FF08BD10B504460748848101460448E5
:1030900002F0AAFD0121024802F04BFE10BD000023
:1030A000003C0040000C01407889002010B5044627
:1030B0002CB900220221C94800F0CBFE04E0012215
:1030C0000221C64800F0C5FE42F2107000F02BFC51
:1030D00010BD10B504462CB900224021C04800F0B4
:1030E000B8FE04E001224021BD4800F0B2FE10BD50
:1030F00070B504460D460020FFF7EBFF022000F0FC
:1031000012FC04F07F0000F0AAF9284600F0A7F9AD
:10311000022000F008FC0120FFF7DBFF01260EB1C2
:10312000012070BD0020FCE770B50446002500209A
:10313000FFF7CFFF022000F0F6FB44F0800000F024
:103140008EF9FF2000F08BF90546022000F0EBFB22
:103150000120FFF7BEFF284670BD2DE9F04105466E
:103160000E4614464FF0000800270020FFF7B1FF7D
:10317000012000F0D8FB05F07F0000F070F900BFDF
:1031800005E0FF2000F06BF92070641C7F1CB74243
:10319000F7D3012000F0C7FB0120FFF79AFF40465C
:1031A000BDE8F08110B500244020FFF7BDFF0446C4
:1031B000204610BD70B5002400250026F120894965
:1031C0000870F22088490870F32088490870F720B9
:1031D0008749087000BF0BE0864810F8145000EBD8
:1031E0004400467831462846FFF782FF601CC4B28F
:1031F000252CF1DB012070BD10B501210020FFF767
:1032000077FF10BD10B500210846FFF771FF10BD14
:103210002DE9FE4F4FF0000A8021714800F0FBFDC0
:103220000290029800287DD0734A09213720FFF7C9
:1032300094FF71480078714908706F484078487071
:103240006D48C0786E4908706B48007948706A48CC
:1032500080796C4908706848C07948706648007881
:103260006049487064484078C8706348C0785E49D7
:10327000487061480079C8705F4880795B49487040
:103280005D48C079C8705D4840785C49097800EBBA
:1032900001205D495D4A1268885459484078584970
:1032A000097800EB01205A49584A12688854554859
:1032B00040785449097800EB0120C1B25548534A7F
:1032C000126881545049514A1268895CA1F5800006
:1032D00004F091FB504A514BCDE9000104F0F2FBA0
:1032E00006460F464A49494A1268895CA1F58000A2
:1032F00004F081FB484A494BCDE9000104F0E2FBB0
:10330000804689464349414A1268895CA1F580009C
:1033100004F071FB404A414BCDE9000104F0D2FBBF
:10332000044600E021E00D463D49384A126801EBB1
:10333000C201C0C13B49354A126801EBC201C1E973
:103340000089394A314B1B6802EBC30230C22F4857
:103350000068401C2D490860084600687F2804D199
:10336000002008600120314908704FF480711C482A
:1033700000F051FD8346BBF1000F29D101202C49FB
:1033800008702C48007810B300202A4908700A20E1
:1033900000F0C9FA284A07211820FFF7DEFE4FF097
:1033A000000A11E00AF1180011494870224810F88B
:1033B0000A00C870084600682049019000F0A7F88C
:1033C0000AF1010000F0FF0ABAF1070FEADB02E0A0
:1033D000002017490870BDE8FE8F0000000C014076
:1033E0000010014055830020598300205D83002098
:1033F000618300206F830020908900204F8300208C
:103400005183002053830020998900206883002085
:10341000198A0020998A002073FDFAA2B66D253F13
:10342000208B0020208F0020209300206C83002020
:103430006D8300206E8300204883002020970020A9
:1034400010B504462CB900224021284800F001FDA7
:1034500004E001224021254800F0FBFC10BD70B5BE
:10346000044600BF0221224802F0E7FC0128F9D1FE
:1034700021461F4802F08EFC00BF01211C4802F0CB
:10348000DCFC0128F9D11A4802F086FCC5B22846B6
:1034900070BD70B504462046FFF7E1FFFF20FFF73F
:1034A000DEFF0546284670BD2DE9F04107460D4672
:1034B000144600263846FFF7D2FF06E0FF20FFF74C
:1034C000CEFF2070641C701CC6B2AE42F6DB012039
:1034D000BDE8F08170B505460C462846FFF7BFFFF2
:1034E0002046FFF7BCFF012070BD00000010014026
:1034F0000038004010B502460020002304E0147894
:103500006040521C5C1CE3B28B42F8DB10BD33B54B
:103510000C460025A078402829DA25789DF800106F
:10352000601D00F825109DF8011000EB850041702A
:103530009DF80310601D00EB85008170611D01EB9B
:1035400085000321FFF7D6FF611D01EB8501C870DF
:10355000A078401CA0702078401C20702078C117F3
:1035600000EB91618911A0EB8111217001E0002035
:103570003CBD0120FCE710B50E48C078012818D0EA
:103580000C488078A8B10B484178401D10F82140C4
:103590002146094801F008F806480079401C054911
:1035A00008710120C870012240F22771024800F022
:1035B0009AFF10BD209700200048004008B5012167
:1035C000042000F051FE0121082000F04DFE0121F1
:1035D000102000F049FE8020ADF8000003208DF897
:1035E000020048208DF803006946BD4800F080FBCA
:1035F0004FF48070ADF8000003208DF802004820E1
:103600008DF803006946B64800F072FB08BD00B5AE
:1036100085B00121082000F027FE0121880400F078
:1036200030FE4FF48060ADF8100001208DF81200DC
:1036300018208DF8130004A9AA4800F059FB4FF494
:103640000060ADF8100001208DF8120004208DF804
:10365000130004A9A34800F04BFB4FF48050ADF8D1
:10366000100001208DF8120004208DF8130004A929
:103670009C4800F03DFB4FF40050ADF810000120D5
:103680008DF8120004208DF8130004A9954800F06D
:103690002FFB4FF40050ADF8100001208DF8120000
:1036A0001C208DF8130004A98E4800F021FB684609
:1036B00000F0EAFE4FF4E13000900020ADF8040085
:1036C000ADF80600ADF80800ADF80C000C20ADF820
:1036D0000A006946844800F06EFE012240F225513E
:1036E000814800F000FF01217F4800F0F0FE05B0A6
:1036F00000BD00B587B00121182000F0B5FD012103
:10370000880300F0BEFD4FF46040ADF818000320C0
:103710008DF81A0018208DF81B0006A9714800F0DA
:10372000E7FA4020ADF8180003208DF81A001020A9
:103730008DF81B0006A96A4800F0DAFA0122402140
:10374000674800F086FB0020ADF804004FF482705B
:10375000ADF806000020ADF80800ADF80A00ADF89D
:103760000C004FF40070ADF80E001820ADF81000FA
:103770000020ADF812000720ADF8140001A95B4845
:1037800002F032FA0121594802F0D3FA07B000BD25
:103790000EB50121042000F074FD0121084600F05F
:1037A00070FD0121022000F06CFD4FF0804001F01F
:1037B000E7FA4720ADF8000040F29440ADF804006D
:1037C0000020ADF80600ADF8020069464FF08040D9
:1037D00001F0AAFB0121880702F0C8F90122114675
:1037E000900701F018FF0121880701F0F9FE47203A
:1037F000ADF800004CF25030ADF804000020ADF8F8
:103800000600ADF802006946394801F08DFB012140
:10381000374802F0ABF901221146354801F0FBFEB2
:103820000121334801F0DCFE0EBD1CB50121084624
:1038300000F01AFD0021084600F070FB012001F0A5
:103840006CF90120009000208DF8040010208DF804
:10385000050001208DF80600684601F0E7F8012117
:10386000002000F05BFB022001F057F902200090DD
:1038700000208DF8040010208DF8050001208DF83F
:103880000600684601F0D2F80421022000F046FB51
:10389000102001F042F91020009000208DF8040063
:1038A00010208DF8050001208DF80600684601F013
:1038B000BDF80521012000F031FB202001F02DF999
:1038C0002020009000208DF8040010208DF80500C5
:1038D00001208DF80600684601F0A8F81CBD000024
:1038E00000100140000C014000480040003800403A
:1038F0000004004010B56FF0040000F07AF92E4883
:1039000000682E49B0FBF1F02D4908700846007898
:1039100000EB4001C1EBC0104FF6FF7101EAC0009F
:103920002849088010BD0146254A12784A434FF0C5
:10393000E0235A6100229A611A46126942F001029C
:103940001A6100BF4FF0E022106900F001021AB1C5
:1039500000F48032002AF5D04FF0E022126922F004
:1039600001024FF0E0231A6100229A61704701467C
:10397000144A12884A434FF0E0235A6100229A61A8
:103980001A46126942F001021A6100BF4FF0E022AC
:10399000106900F001021AB100F48032002AF5D05B
:1039A0004FF0E022126922F001024FF0E0231A6189
:1039B00000229A61704700000000002000127A0087
:1039C000BA830020BC83002010B54FF4A06000F043
:1039D000C1F810BD014600BF704700BF494A1288B8
:1039E00002F04002002AF9D0C2B2464B1B1D1A80D9
:1039F000704710B586B00446012144F2050000F07E
:103A000033FC4FF40070ADF8140003208DF816005D
:103A100018208DF8170005A93B4800F069F94FF40C
:103A20008060ADF8140004208DF8170005A9364811
:103A300000F05EF925208DF8000003208DF80100CC
:103A40008DF8020001208DF80300684600F087F829
:103A500001940020ADF80800ADF80A00ADF80C00A4
:103A6000ADF810000C20ADF80E0001A9254800F0BB
:103A7000A2FC012240F22551224800F034FD012130
:103A8000204800F024FD06B010BD10B540F22551CD
:103A90001C4800F00DFE10B31A4800F089FDC4B2B6
:103AA0001A48008800F40040C8B91848008800F49B
:103AB000804060B10A2C03D000201449088020E027
:103AC0001248008840F400401049088019E00D2C8D
:103AD00006D10E48008840F480400C49088010E070
:103AE0000A480088C0F30D0009490C5407480088B3
:103AF000401C0649088008460088C72801DD0020D0
:103B0000088010BD0038014000080140C483002037
:103B1000259800200948804709480047FEE7FEE74E
:103B2000FEE7FEE7FEE7FEE7FEE7FEE7FEE7FEE76D
:103B300004480549054A064B70470000CF030008BA
:103B40003101000850990020509F0020509B002018
:103B5000509B002031490143314A1160704770B5D4
:103B6000002100230F22C47804B32D4C246804F4F0
:103B7000E064C4F5E064210AC1F10403CA4044785A
:103B800004FA03F18478144021430901254C067896
:103B9000A155047804F01F050124AC4005786D118F
:103BA000AD0005F1E025C5F8004109E0047804F016
:103BB0001F050124AC401C4D0678761145F82640BF
:103BC00070BD1A4A0A400243154B1B1F1A6070470A
:103BD00039B1134A121D12680243114B1B1D1A60A2
:103BE00006E00F4A121D126882430D4B1B1D1A601E
:103BF0007047042808D14FF0E021096941F0040121
:103C00004FF0E022116107E04FF0E021096921F057
:103C100004014FF0E0221161704700000000FA0536
:103C20000CED00E000E400E080E100E080FFFF1F19
:103C300010B50446CC48844208D10121042000F08C
:103C40002DFB0021042000F029FB46E0C7488442F8
:103C500008D10121082000F021FB0021082000F0FC
:103C60001DFB3AE0C248844208D10121102000F037
:103C700015FB0021102000F011FB2EE0BD4884420E
:103C800008D10121202000F009FB0021202000F0B4
:103C900005FB22E0B848844208D10121402000F011
:103CA000FDFA0021402000F0F9FA16E0B348844202
:103CB00008D10121802000F0F1FA0021802000F0DD
:103CC000EDFA0AE0AE48844207D10121801500F0E8
:103CD000E5FA0021A01500F0E1FA10BD10B50121B0
:103CE000084600F0DBFA0021012000F0D7FA10BDF1
:103CF0002DE9F04102460025002600200023002483
:103D0000002791F803C00CF00F0591F803C00CF0E8
:103D1000100CBCF1000F03D091F802C04CEA05056D
:103D200091F800C0BCF1000F31D0146800202BE0E6
:103D30004FF0010C0CFA00F3B1F800C00CEA0306D6
:103D40009E4220D183004FF00F0C0CFA03F7BC43C6
:103D500005FA03FC4CEA040491F803C0BCF1280FF7
:103D600006D14FF0010C0CFA00FCC2F814C00AE0B6
:103D700091F803C0BCF1480F05D14FF0010C0CFACB
:103D800000FCC2F810C0401C0828D1D31460B1F860
:103D900000C0BCF1FF0F34DD546800202EE000F1BC
:103DA000080C4FF0010808FA0CF3B1F800C00CEA57
:103DB00003069E4221D183004FF00F0C0CFA03F74B
:103DC000BC4305FA03FC4CEA040491F803C0BCF1BF
:103DD000280F05D100F1080C08FA0CF8C2F814807D
:103DE00091F803C0BCF1480F07D100F1080C4FF067
:103DF000010808FA0CF8C2F81080401C0828CED33D
:103E00005460BDE8F0814FF6FF710180022181709E
:103E10000421C17070470246002093680B400BB12B
:103E2000012000E0002070470146886880B270479A
:103E300002460020D3680B400BB1012000E00020B7
:103E400070470146C86880B27047016170474161A0
:103E500070470AB1016100E041617047C16070477D
:103E60004FF480320A438261816182618269826992
:103E7000704702460020434B18684FF68073184085
:103E800040EA021008433F4B186070473E49C86142
:103E90007047F0B50A46002300240021002500F0F9
:103EA0000046B6F1004F02D1364EF16901E0354EC1
:103EB0007168C0F3034583B200F44016B6F5401FA5
:103EC00008D121F070612F4E766826F070662D4F74
:103ED0007E6012E000F48016B6F5801F06D103263E
:103EE00006FA05F4A14341F0706106E0460D360183
:103EF00003FA06F6B14341F0706122B1460D360176
:103F000003FA06F6314300F00046B6F1004F02D145
:103F10001C4EF16101E01B4E7160F0BD30B5002216
:103F20008B071C0F0F2303FA04F2164B08338C1077
:103F300053F824309343134C08348D1044F8253043
:103F400023468C1053F824308C07240F00FA04F415
:103F500023430C4C08348D1044F8253030BD0A49F9
:103F6000DC3108607047000000080140000C01408F
:103F7000001001400014014000180140001C0140E5
:103F8000002001400000014000002042DF4800689E
:103F900040F00100DD49086008464068DC490840FF
:103FA000DA49486008460068DA490840D74908609D
:103FB0000846006820F4802008600846406820F425
:103FC000FE0048604FF41F0088607047CF490968C1
:103FD00021F48031CD4A11601146096821F4802115
:103FE0001160B0F5803F03D0B0F5802F0ED106E010
:103FF000C649096841F48031C44A116007E0C349E9
:10400000096841F4A021C14A116000E000BF00BF6F
:10401000704710B501460022002300204A11012AF2
:1040200002D1BA4C236806E0022A02D1B74C236AB7
:1040300001E0B64C636A01F01F02012494401C4069
:104040000CB1012000E0002010BD38B50020009028
:104050000024002500BF3120FFF7DBFF0546009854
:10406000401C00900098B0F5A06F01D0002DF2D058
:104070003120FFF7CEFF08B1012400E000242046E4
:1040800038BD01460020A14A106820F0F80040EA3F
:10409000C10010607047A0490860704702460020C8
:1040A0009A4B586820F47C1042EA01031843974B5E
:1040B0005860704798490866704701460020934A47
:1040C000506820F003000843506070478F484068F4
:1040D00000F00C007047014600208C4A506820F028
:1040E000F00008435060704701460020874A50683E
:1040F00020F4E06008435060704701460020834A86
:10410000506820F4605040EAC1005060704729B107
:104110007E4A527A02437D4B5A7204E07B4A527ABD
:1041200082437A4B5A7270477B49D8310860704796
:1041300001460020754A506820F440400843506012
:1041400070470021714A20321170704A82F82010A5
:10415000012802D004280AD104E001216B4A203250
:10416000117005E00521694A2032117000E000BF9E
:1041700000BF70476949086070476449096A014394
:10418000624A11627047654944390860704730B52A
:1041900000210022002400235C4D6D6805F00C0115
:1041A00021B1042905D0082923D105E05C4D056023
:1041B00022E05B4D05601FE0544D6D6805F4701200
:1041C000524D6D6805F48034022505EB92421CB90E
:1041D000544D554305600BE04C4D6D6805F40035BA
:1041E0001DB1504D5543056002E04D4D55430560EE
:1041F00002E04B4D056000BF00BF444D6D6805F007
:10420000F0010909484D6B5C0568DD4045603F4D94
:104210006D6805F4E061090A434D6B5C4568DD405B
:1042200085603A4D6D6805F46051C90A3E4D6B5C7E
:104230004568DD40C560354D6D6805F44041890B2A
:104240003A4D6B5CC568B5FBF3F5056130BD29B12E
:104250002E4A526902432D4B5A6104E02B4A52699F
:1042600082432A4B5A61704729B1284A9269024316
:10427000264B9A6104E0254A92698243234B9A6156
:10428000704729B1214AD2690243204BDA6104E028
:104290001E4AD26982431D4BDA61704729B11B4A1D
:1042A000D2680243194BDA6004E0184AD2688243AC
:1042B000164BDA60704729B1144A12690243134B56
:1042C0001A6104E0114A12698243104B1A61704767
:1042D00012494039086070470F49C86470470B495C
:1042E000C87170470948406A40F0807007494862C9
:1042F000704701460020054A92680A400AB1012031
:1043000000E00020704701498872704700100240A9
:104310000000FFF8FFFFF6FE000042428004424228
:1043200000127A0000093D00C6830020D6830020D9
:1043300010B50446FB48844209D101218803FFF7E8
:10434000ADFF00214FF48040FFF7A8FF32E0F648B0
:10435000844209D101214804FFF7ADFF00214FF449
:104360000030FFF7A8FF25E0F048844209D1012181
:104370008804FFF7A0FF00214FF48020FFF79BFF88
:1043800018E0EB48844209D10121C804FFF793FFEC
:1043900000214FF40020FFF78EFF0BE0E548844238
:1043A00008D101210805FFF786FF00214FF4801096
:1043B000FFF781FF10BD2DE9F04786B005460E4698
:1043C0000024A24600BFA1460027B08900B100BF6B
:1043D0002F462C8A4CF6FF700440F08804432C8250
:1043E000AC894EF6F3100440B088318908437189D6
:1043F00008430443AC81AC8A4FF6FF400440B089C7
:104400000443AC8201A8FFF7C2FEC648874202D12E
:10441000DDF810A001E0DDF80CA0A88900F4004050
:1044200040B10AEBCA0000EB0A1031684900B0FB4A
:10443000F1F807E00AEBCA0000EB0A1031688900C6
:10444000B0FBF1F86420B8FBF0F00401200964210E
:1044500001FB1089A88900F4004040B1322000EB34
:10446000C900B0FBF1F000F00700044308E032207F
:1044700000EB09106421B0FBF1F000F00F000443E1
:104480002C8106B0BDE8F0874FF416510160002181
:104490008180C18001810C2141810021818170478F
:1044A00010B502460020108A4FF2FF0318400B8817
:1044B0004C8823438C882343CC88234318431082A1
:1044C00010BD0021018041808180C180704721B1F1
:1044D000828942F40052828104E082894DF6FF73A2
:1044E0001A4082817047F0B503460024002600255B
:1044F000002040F66A17B94200D100BF1846C1F348
:10450000421401F01F06012707FA06F5012C01D11C
:104510000C3004E0022C01D1103000E014301AB14C
:1045200007682F43076002E00768AF430760F0BDEC
:104530001AB1838A0B43838202E0838A8B4383828E
:104540007047028A4FF6F0731A400282028A0A43C9
:104550000282704782894FF2FF731A4082818289FA
:104560000A438281704721B1828942F0020282812E
:1045700004E082894FF6FD731A4082817047028AF7
:104580004FF6DF731A400282028A0A4302827047A2
:1045900021B1028A42F48042028204E0028A4BF690
:1045A000FF731A4002827047C1F30802828070478D
:1045B00001468888C0F308007047818941F00101F5
:1045C00081817047028BD2B20283028B42EA0122C0
:1045D00002837047028B02F47F420283028B0A43FC
:1045E0000283704721B1828A42F02002828204E075
:1045F000828A4FF6DF731A408282704721B1828A25
:1046000042F01002828204E0828A4FF6EF731A4071
:104610008282704721B1828A42F00802828204E0DD
:10462000828A4FF6F7731A408282704721B18289DD
:1046300042F40042828103E08289C2F30E02828149
:10464000704721B1828A42F40062828204E0828A49
:104650004FF2FF731A4082827047828A4FF6FB73D3
:104660001A408282828A0A438282704721B1828AFA
:1046700042F00202828204E0828A4FF6FD731A4001
:104680008282704702460020B1F5007F00D100BF52
:1046900013880B400BB1012000E00020704701F4AB
:1046A0000072B2F5007F00D100BFCA43028070479C
:1046B00070B50246002400230025002040F66A164B
:1046C000B14200D100BFC1F3421501F01F03012622
:1046D00006FA03F3012D02D19689334006E0022D3C
:1046E00002D1168A334001E0968A33400C1201262B
:1046F00006FA04F41688344013B10CB1012000E02E
:10470000002070BD10B50022002340F66A14A142BB
:1047100000D100BF0A1201249440A3B2DC430480FC
:1047200010BD000000380140004400400048004037
:10473000004C00400050004010B50120FFF7C8FDBC
:104740000020FFF7C5FD10BD2A49086070472949C0
:10475000091F086070472749843108607047014687
:104760000020254A10884FF67F4210400843224A15
:1047700010807047014600201F4A10884FF6807253
:10478000104008431C4A1080704708B50022009270
:10479000194A2C3A0092009A02440092009A116041
:1047A00008BD08B501460020009013482C38009041
:1047B0000098084400900098008808BD0D489C307F
:1047C0000068C0B270470C480830008840F0010013
:1047D00009490831088070470648A0300068C0B217
:1047E000704705480830008840F00200024908314F
:1047F0000880704704860D422C6C004010B50121E2
:104800000807FFF758FD00214FF08050FFF753FDD8
:1048100010BD2A490862704728490861704701465F
:104820000020274A106820F0E0000843106070471D
:104830002249A0310860704710B502460020204B85
:10484000186820F00300104318601E4B1B6843F0EB
:1048500004031C4C2360012901D130BF00E020BFBC
:10486000184B1B6823F00403164C236010BD14483A
:10487000006840F00400124908600846006840F0F3
:10488000020008600F48006840F004000D4908600D
:1048900000BF00BF30BF704701460020084A526881
:1048A0000A400AB1012000E000207047044909686D
:1048B00041EA8001024A11607047000000000E4288
:1048C0000070004010ED00E029B1504A1288024308
:1048D0004E4B1A8004E04D4A128882434B4B1A809B
:1048E00070474A48001D008840F010004749091DE4
:1048F000088070474548001D00884FF6EF7108405A
:104900004249091D08807047002140481C30018839
:10491000001F008841EA0040704700B50246FFF7DB
:10492000E0FF100C394918310880091D0A80FFF793
:10493000E1FF00BD00B50246FFF7D3FFC2F303401D
:10494000324908310880091D0A80FFF7D3FF00BDF6
:1049500000B50246FFF7C5FF100C2C492031088036
:10496000091D0A80FFF7C6FF00BD0020274910314E
:1049700009880907080B254914310988084370473D
:1049800000BF2248001D008800F020000028F8D059
:1049900070471E48001D00884FF6F77108401B49FC
:1049A000091D088000BF1948001D008800F008009C
:1049B0000028F8D0704701460020144A121D1288C2
:1049C0000A400AB1012000E0002070470F49091D8C
:1049D000098881430D4A121D11807047014600204D
:1049E0000A4A121D12880A40D0B2084A12880A40A8
:1049F00012B108B1012000E0002070470349091DF1
:104A000009888143014A121D118070470028004027
:104A1000002044490860091D0860091D0860091D3F
:104A2000086041483F4914310860704700213D4902
:104A30008279002A3AD00A46126803689A430B46E4
:104A40001A600A1D126803689A430B1D1A600279E6
:104A500011440A6803681A430A60324A083212682D
:104A600003689A432F4B08331A601A1D12680368B3
:104A70009A432C4B0C331A604279102A0ED11A1F1C
:104A8000126803681A43274B08331A601A1D12680C
:104A900003681A43234B0C331A600DE02149427915
:104AA00011440A6803681A430A6005E00279114458
:104AB0000A6803689A430A60704700210160017127
:104AC0000C2141710021817170471649103109682C
:104AD0000143144A10321160704701460020114A08
:104AE000143212680A400AB1012000E00020704729
:104AF0000C49143108607047014600200022094B20
:104B00001B6803EA0102074B14331B680B4013B107
:104B10000AB1012000E0002070470249143108600A
:104B20007047000000040140FFFF0F0001684FF6CE
:104B3000FE72114001600021016041608160C1602E
:104B40008D49884208D18C490839496841F00F01E4
:104B5000894A083A51608AE087491431884208D16D
:104B600085490839496841F0F001834A083A5160A3
:104B70007DE081492831884208D17F490839496858
:104B800041F470617C4A083A516070E07A493C31E6
:104B9000884208D178490839496841F47041764A19
:104BA000083A516063E074495031884208D1724933
:104BB0000839496841F470216F4A083A516056E05B
:104BC0006D496431884208D16B490839496841F41C
:104BD0007001694A083A516049E067497831884272
:104BE00008D165490839496841F07061624A083A5C
:104BF00051603CE06149884206D1011F096841F0DB
:104C00000F01021F116032E05C491431884208D163
:104C10005A49091F096841F0F001584A121F1160F2
:104C200025E056492831884208D15449091F0968AE
:104C300041F47061514A121F116018E04F493C3134
:104C4000884208D14D49091F096841F470414B4A17
:104C5000121F11600BE049495031884207D1474982
:104C6000091F096841F47021444A121F11607047FE
:104C700010B50022026847F6F0739A430C6A8B68FD
:104C800023430C6923434C6923438C692343CC6938
:104C900023434C6A23438C6A23431A430260CB6844
:104CA00043600B6883604B68C36010BD00210160E6
:104CB00041608160C160016141618161C1610162E6
:104CC00041628162704721B1026842F001020260D4
:104CD00004E002684FF6FE731A40026070471AB192
:104CE00003680B43036002E003688B430360704773
:104CF000416070470146486880B270470146002015
:104D0000002201F080531BB11C4B083B1A6802E0E3
:104D1000194B083B1A6802EA01030BB1012000E0BD
:104D20000020704700F0805119B11449091F086034
:104D300002E011490839486070470146002000220E
:104D400001F080531BB10D4B083B1A6802E00A4B7F
:104D5000083B1A6802EA01030BB1012000E00020C1
:104D6000704700F0805119B10449091F086002E042
:104D700001490839486070470800024008040240B1
:104D800010B50446FE48844208D10121C014FFF743
:104D900085FA0021E014FFF781FAC4E0B4F1804FF6
:104DA00008D101210846FFF786FA00210120FFF70C
:104DB00082FAB8E0F348844208D101210220FFF7CB
:104DC0007AFA00210220FFF776FAACE0EE4884423E
:104DD00008D101210420FFF76EFA00210420FFF71B
:104DE0006AFAA0E0E948844208D101210820FFF7CF
:104DF00062FA00210820FFF75EFA94E0E44884425A
:104E000008D101211020FFF756FA00211020FFF7EA
:104E100052FA88E0DF48844208D101212020FFF7C0
:104E20004AFA00212020FFF746FA7CE0DA48844263
:104E300008D101214014FFF731FA00216014FFF777
:104E40002DFA70E0D548844209D10121C804FFF74A
:104E500025FA00214FF40020FFF720FA63E0D04844
:104E6000844209D101210805FFF718FA00214FF407
:104E70008010FFF713FA56E0CA48844209D1012195
:104E80004805FFF70BFA00214FF40010FFF706FA70
:104E900049E0C548844208D101214020FFF70BFAC0
:104EA00000214020FFF707FA3DE0C048844208D1C6
:104EB00001218020FFF7FFF900218020FFF7FBF997
:104EC00031E0BB48844208D101218015FFF7F3F996
:104ED0000021A015FFF7EFF925E0B648844209D17B
:104EE00001210804FFF7DAF900214FF48030FFF7C1
:104EF000D5F918E0B048844209D101214804FFF7F0
:104F0000CDF900214FF40030FFF7C8F90BE0AB48B2
:104F1000844208D101218804FFF7C0F900214FF431
:104F20008020FFF7BBF910BD00220288944B984205
:104F30000ED0994B98420BD0B0F1804F08D0914BD6
:104F4000984205D0904B984202D0904B984204D1A1
:104F50004FF68F731A404B881A438D4B984207D0F7
:104F60008C4B984204D04FF6FF431A40CB881A432B
:104F700002808B8883850B880385814B98420BD0F8
:104F8000854B984208D08B4B984205D08A4B98426B
:104F900002D08A4B984201D10B7A03860123838287
:104FA000704770B5002400220023058C4FF6FE7672
:104FB00035400584028C8388048B4FF68F752C4016
:104FC000B51E2C400D882C43751E2A400D892A439E
:104FD0004D882A436A4DA8420BD06F4DA84208D095
:104FE000744DA84205D0744DA84202D0734DA8421A
:104FF00013D14FF6F7752A404D892A434FF6FB75BA
:105000002A408D882A434FF6FF652B404FF6FF5507
:105010002B408D892B43CD892B4383800483CD88FE
:105020008586028470BD70B5002400220023058CA3
:105030004FF6EF7635400584028C8388048B48F662
:10504000FF752C404FF6FF452C400D884FF6FF763C
:1050500006EA05252C434FF6DF752A400D8906EA3E
:1050600005152A434D8806EA05152A43444DA842F2
:1050700002D0494DA8421DD14FF67F752A404D8977
:105080004FF6FF7606EA05152A434FF6BF752A400C
:105090008D8806EA05152A434FF6FF352B404FF25F
:1050A000FF752B408D8906EA85052B43CD8906EADD
:1050B00085052B4383800483CD880587028470BDDA
:1050C00070B5002400220023058C4FF6FF663540A2
:1050D0000584028C8388848B4FF68F752C404FF6A5
:1050E000FC752C400D882C434FF6FF552A400D8946
:1050F0004FF6FF7606EA05252A434D8806EA052580
:105100002A431F4DA84202D0234DA8421DD14FF281
:10511000FF752A404D894FF6FF7606EA05252A439A
:105120004FF6FF352A408D8806EA05252A434EF6BC
:10513000FF752B404DF6FF752B408D8906EA05154E
:105140002B43CD8906EA05152B4383808483CD88C4
:105150008587028470BD70B5002200230024058C71
:105160004EF6FF7635400584038C8488828B48F6A2
:10517000FF752A404FF6FF452A400D8820E00000C9
:10518000002C01400004004000080040000C0040DA
:10519000001000400014004000340140004C014069
:1051A000005001400054014000180040001C004025
:1051B0000020004000400140004401400048014000
:1051C0004FF6FF7606EA05252A434DF6FF752B407C
:1051D0000D8906EA05352B434D8806EA05352B4334
:1051E000FA4DA84202D0FA4DA84208D14BF6FF75FD
:1051F0002C408D894FF6FF7606EA85152C43848076
:105200008283CD88A0F84050038470BD828B4FF21A
:10521000FF331A408283828B4FF6FF7303EA012328
:105220001A4382837047F0B50C46154600220021D0
:105230000026078C4EF6FF7C07EA0C070784828B5A
:10524000018C4FF6FF7707EA043640F6FF473A40F5
:105250004FF6FF7707EA05273A434FF6FF7707EA4D
:1052600003373A43D94FB8420ED0D94FB8420BD08A
:10527000B0F1804F08D0D74FB84205D0D64FB842D2
:1052800002D0D64FB84206D14DF6FF77394046F4EA
:105290008057394305E047F6FF57394044F48057BB
:1052A000394382830184F0BD828B4FF6F3731A4039
:1052B0008283828B0A4382837047F0B50C46154681
:1052C000002200210026078C4FF6FF6C07EA0C072E
:1052D0000784828B018C4FF6FF7707EA04264FF68E
:1052E0000C773A404FF6FF7707EA03172F433A430C
:1052F000B64FB8420ED0B64FB8420BD0B0F1804F87
:1053000008D0B44FB84205D0B34FB84202D0B34F23
:10531000B84206D14FF6FF57394046F480773943FB
:1053200005E04FF2FF57394044F4807739438283D8
:105330000184F0BD028B4FF2FF331A400283028BCF
:105340004FF6FF7303EA01231A4302837047F0B557
:105350000C461546002200210026078C4FF6EF7CF4
:1053600007EA0C070784028B018C4FF6FF7707EAE8
:10537000041640F6FF473A404FF6FF7707EA033737
:105380003A434FF6FF7707EA05273A438F4FB84273
:105390000ED08F4FB8420BD0B0F1804F08D08D4F58
:1053A000B84205D08C4FB84202D08C4FB84206D1DB
:1053B0004FF6DF77394046F01007394305E04FF6E6
:1053C0005F77394044F01007394302830184F0BD10
:1053D000028B4FF6F3731A400283028B0A43028357
:1053E0007047F0B50C46154600220021068C4FF69A
:1053F000FE773E400684028B018C4FF60C763240DD
:105400007E1C06EA03162E433243704EB0420ED085
:105410006F4EB0420BD0B0F1804F08D06D4EB0420D
:1054200005D06D4EB04202D06C4EB04206D14FF660
:10543000FD76314044F00106314305E04FF6F57644
:10544000314044F00106314302830184F0BD70B560
:1054500005460C465D4885420ED05D4885420BD01E
:10546000B5F1804F08D05B48854205D05A48854247
:1054700002D05A48854200D100E000BF208850B9D0
:105480002389A28861882846FFF7ABFFE188284678
:10549000FFF79EFF25E0208804280AD12389A288EF
:1054A00061882846FFF753FFE1882846FFF742FF4F
:1054B00017E0208808280AD12389A2886188284615
:1054C000FFF7FBFEE1882846FFF7EEFE09E023899F
:1054D000A28861882846FFF7A6FEE1882846FFF7E4
:1054E00095FE70BD2DE9F04105460C4600260127CA
:1054F000608808B9022600E00026A088012801D1B2
:10550000022700E001272088A0B92389A2886188AA
:105510002846FFF766FFE1882846FFF759FF2389F1
:105520003A4631462846FFF712FFE1882846FFF742
:1055300001FF13E02389A28861882846FFF707FF4F
:10554000E1882846FFF7F6FE23893A463146284689
:10555000FFF747FFE1882846FFF73AFFBDE8F081F3
:105560000A884B881A438B881A43CB881A430B89C5
:105570001A434B891A438B891A43A0F84420704779
:105580004FF6FF71818000210180C180418001724E
:1055900070470021018041808180C180018141816B
:1055A0008181C1817047002101804180012181807A
:1055B0000021C180018170470021018041808180EC
:1055C000C18001814181818170470000002C014030
:1055D000003401400004004000080040000C00407E
:1055E00021B1028842F00102028004E002884FF6F5
:1055F000FE731A400280704731B1B0F8442042F483
:105600000042A0F8442005E0B0F84420C2F30E02A6
:10561000A0F8442070471AB183890B43838102E0CC
:1056200083898B43838170478182704741EA0203FB
:10563000A0F8483070471AB183890B43838102E098
:1056400083898B438381704701894FF6F87211403B
:10565000018170470A46002101894FF68F73194076
:1056600011430181704730B504460D462946204656
:10567000FFF7F0FF208940F00700208130BD2DE9C1
:10568000F04104460D4616461F46602D06D13B46A6
:10569000012231462046FFF75AFE05E03B46012233
:1056A00031462046FFF79DFE29462046FFF7D2FFF0
:1056B000208940F007002081BDE8F08130B50C461C
:1056C00000210189C9B24FF6FF7505EA032515438C
:1056D00025432943018130BD2DE9F04105460E46A1
:1056E00017469846002443463A4631462846FFF777
:1056F000E5FF2C894FF6F870044044F007044FF69C
:105700008F70044044F070042C81BDE8F081F0B546
:1057100004460D4616461F463B463246294620465D
:10572000FFF7CCFF208940F480402081F0BD018547
:10573000828270470A46002101884FF68F73194014
:10574000114301807047F0B50C4615461E460021F6
:10575000002200230189028B038C4FF6F877394031
:1057600021434FF6FC473A4040F201173A434FF6C7
:10577000DD773B404FF6FF7707EA06172F433B43A1
:10578000018102830384F0BD0A460021018B4FF69C
:105790008F7319401143018370470A460021018B22
:1057A00048F6FF7319404FF6FF7303EA02231943CB
:1057B000018370470A460021818B4FF68F73194091
:1057C0001143818370470A460021818B48F6FF739D
:1057D00019404FF6FF7303EA022319438183704790
:1057E00021B1028842F08002028004E002884FF674
:1057F0007F731A400280704721B1828842F0040210
:10580000828004E082884FF6FB731A4082807047E2
:1058100021B1828842F00802828004E082884FF63B
:10582000F7731A408280704721B1828842F00102EA
:10583000828004E082884FF6FE731A4082807047AF
:105840000A460021018B4FF6F7731940114301837B
:1058500070470A460021018B4FF2FF7319404FF643
:10586000FF7303EA02231943018370470A460021AC
:10587000818B4FF6F77319401143818370470A46B5
:105880000021818B4FF2FF7319404FF6FF7303EA3B
:1058900002231943818370470A460021018B4FF68A
:1058A000FB7319401143018370470A460021018BA5
:1058B0004FF6FF3319404FF6FF7303EA02231943F3
:1058C000018370470A460021818B4FF6FB73194014
:1058D0001143818370470A460021818B4FF6FF33C5
:1058E00019404FF6FF7303EA02231943818370477F
:1058F0000A460021018B4FF67F7319401143018343
:1059000070470A460021018BC1F30E014FF6FF7369
:1059100003EA02231943018370470A460021818B61
:105920004FF67F7319401143818370470A46002167
:10593000818BC1F30E014FF6FF7303EA0223194373
:10594000818370470A460021018C4FF6FD73194090
:105950001143018470470A460021018C4FF6F7730A
:1059600019401143018470470A460021018C4FF60B
:10597000DF7319404FF6FF7303EA021319430184E2
:1059800070470A460021018C4FF67F7319404FF68D
:10599000FF7303EA02131943018470470A4600218A
:1059A000018C4FF6FF5319404FF6FF7303EA0223B1
:1059B0001943018470470A460021018C4FF2FF739E
:1059C00019404FF6FF7303EA02231943018470471D
:1059D0000A460021018C4DF6FF7319404FF6FF7304
:1059E00003EA023319430184704730B500230124D0
:1059F0008C40A3B2048C9C430484048C02FA01F50D
:105A0000ADB22C43048430BD30B5002304248C4057
:105A1000A3B2048C9C430484048C02FA01F5ADB259
:105A20002C43048430BD70B5034600200024184682
:105A3000183001258D40ACB21D8CA5431D8409B1E1
:105A4000082909D100EB6100056825F070050560A3
:105A50000568154305600EE00D1FC5F34E0528448B
:105A6000056825F4E045056005684FF6FF7606EA0F
:105A700002263543056070BD21B1028842F0020262
:105A8000028004E002884FF6FD731A4002807047DE
:105A900021B1028842F00402028004E002884FF63D
:105AA000FB731A400280704721B1828842F0800265
:105AB000828004E082884FF67F731A4082807047AC
:105AC00002884FF6F7731A40028002880A43028068
:105AD000704782884FF68F731A40828082880A430B
